{
  "_format": "hh-sol-artifact-1",
  "contractName": "Coffee",
  "sourceName": "contracts/coffee.sol",
  "abi": [
    {
      "inputs": [],
      "stateMutability": "nonpayable",
      "type": "constructor"
    },
    {
      "inputs": [
        {
          "internalType": "string",
          "name": "name",
          "type": "string"
        },
        {
          "internalType": "string",
          "name": "message",
          "type": "string"
        }
      ],
      "name": "buyCoffee",
      "outputs": [],
      "stateMutability": "payable",
      "type": "function"
    },
    {
      "inputs": [],
      "name": "getMemos",
      "outputs": [
        {
          "components": [
            {
              "internalType": "string",
              "name": "name",
              "type": "string"
            },
            {
              "internalType": "string",
              "name": "message",
              "type": "string"
            },
            {
              "internalType": "uint256",
              "name": "timestamp",
              "type": "uint256"
            },
            {
              "internalType": "address",
              "name": "from",
              "type": "address"
            }
          ],
          "internalType": "struct Coffee.Memo[]",
          "name": "",
          "type": "tuple[]"
        }
      ],
      "stateMutability": "view",
      "type": "function"
    },
    {
      "inputs": [],
      "name": "launch",
      "outputs": [],
      "stateMutability": "nonpayable",
      "type": "function"
    },
    {
      "inputs": [],
      "name": "status",
      "outputs": [
        {
          "internalType": "string",
          "name": "",
          "type": "string"
        }
      ],
      "stateMutability": "view",
      "type": "function"
    }
  ],
  "bytecode": "0x608060405234801561001057600080fd5b5033600260006101000a81548173ffffffffffffffffffffffffffffffffffffffff021916908373ffffffffffffffffffffffffffffffffffffffff160217905550610ce3806100616000396000f3fe60806040526004361061003f5760003560e01c806301339c2114610044578063200d2ed21461005b578063204206e114610086578063865c5172146100a2575b600080fd5b34801561005057600080fd5b506100596100cd565b005b34801561006757600080fd5b50610070610114565b60405161007d9190610630565b60405180910390f35b6100a0600480360381019061009b91906106c1565b6101a2565b005b3480156100ae57600080fd5b506100b76103bd565b6040516100c49190610912565b60405180910390f35b6040518060400160405280600881526020017f6c6966742d6f6666000000000000000000000000000000000000000000000000815250600190816101119190610b6f565b50565b6001805461012190610992565b80601f016020809104026020016040519081016040528092919081815260200182805461014d90610992565b801561019a5780601f1061016f5761010080835404028352916020019161019a565b820191906000526020600020905b81548152906001019060200180831161017d57829003601f168201915b505050505081565b600034116101e5576040517f08c379a00000000000000000000000000000000000000000000000000000000081526004016101dc90610c8d565b60405180910390fd5b600260009054906101000a900473ffffffffffffffffffffffffffffffffffffffff1673ffffffffffffffffffffffffffffffffffffffff166108fc349081150290604051600060405180830381858888f1935050505015801561024d573d6000803e3d6000fd5b506000604051806080016040528086868080601f016020809104026020016040519081016040528093929190818152602001838380828437600081840152601f19601f82011690508083019250505050505050815260200184848080601f016020809104026020016040519081016040528093929190818152602001838380828437600081840152601f19601f8201169050808301925050505050505081526020014281526020013373ffffffffffffffffffffffffffffffffffffffff168152509080600181540180825580915050600190039060005260206000209060040201600090919091909150600082015181600001908161034d9190610b6f565b5060208201518160010190816103639190610b6f565b506040820151816002015560608201518160030160006101000a81548173ffffffffffffffffffffffffffffffffffffffff021916908373ffffffffffffffffffffffffffffffffffffffff160217905550505050505050565b60606000805480602002602001604051908101604052809291908181526020016000905b82821015610597578382906000526020600020906004020160405180608001604052908160008201805461041490610992565b80601f016020809104026020016040519081016040528092919081815260200182805461044090610992565b801561048d5780601f106104625761010080835404028352916020019161048d565b820191906000526020600020905b81548152906001019060200180831161047057829003601f168201915b505050505081526020016001820180546104a690610992565b80601f01602080910402602001604051908101604052809291908181526020018280546104d290610992565b801561051f5780601f106104f45761010080835404028352916020019161051f565b820191906000526020600020905b81548152906001019060200180831161050257829003601f168201915b50505050508152602001600282015481526020016003820160009054906101000a900473ffffffffffffffffffffffffffffffffffffffff1673ffffffffffffffffffffffffffffffffffffffff1673ffffffffffffffffffffffffffffffffffffffff1681525050815260200190600101906103e1565b50505050905090565b600081519050919050565b600082825260208201905092915050565b60005b838110156105da5780820151818401526020810190506105bf565b60008484015250505050565b6000601f19601f8301169050919050565b6000610602826105a0565b61060c81856105ab565b935061061c8185602086016105bc565b610625816105e6565b840191505092915050565b6000602082019050818103600083015261064a81846105f7565b905092915050565b600080fd5b600080fd5b600080fd5b600080fd5b600080fd5b60008083601f8401126106815761068061065c565b5b8235905067ffffffffffffffff81111561069e5761069d610661565b5b6020830191508360018202830111156106ba576106b9610666565b5b9250929050565b600080600080604085870312156106db576106da610652565b5b600085013567ffffffffffffffff8111156106f9576106f8610657565b5b6107058782880161066b565b9450945050602085013567ffffffffffffffff81111561072857610727610657565b5b6107348782880161066b565b925092505092959194509250565b600081519050919050565b600082825260208201905092915050565b6000819050602082019050919050565b600082825260208201905092915050565b600061078a826105a0565b610794818561076e565b93506107a48185602086016105bc565b6107ad816105e6565b840191505092915050565b6000819050919050565b6107cb816107b8565b82525050565b600073ffffffffffffffffffffffffffffffffffffffff82169050919050565b60006107fc826107d1565b9050919050565b61080c816107f1565b82525050565b6000608083016000830151848203600086015261082f828261077f565b91505060208301518482036020860152610849828261077f565b915050604083015161085e60408601826107c2565b5060608301516108716060860182610803565b508091505092915050565b60006108888383610812565b905092915050565b6000602082019050919050565b60006108a882610742565b6108b2818561074d565b9350836020820285016108c48561075e565b8060005b8581101561090057848403895281516108e1858261087c565b94506108ec83610890565b925060208a019950506001810190506108c8565b50829750879550505050505092915050565b6000602082019050818103600083015261092c818461089d565b905092915050565b7f4e487b7100000000000000000000000000000000000000000000000000000000600052604160045260246000fd5b7f4e487b7100000000000000000000000000000000000000000000000000000000600052602260045260246000fd5b600060028204905060018216806109aa57607f821691505b6020821081036109bd576109bc610963565b5b50919050565b60008190508160005260206000209050919050565b60006020601f8301049050919050565b600082821b905092915050565b600060088302610a257fffffffffffffffffffffffffffffffffffffffffffffffffffffffffffffffff826109e8565b610a2f86836109e8565b95508019841693508086168417925050509392505050565b6000819050919050565b6000610a6c610a67610a62846107b8565b610a47565b6107b8565b9050919050565b6000819050919050565b610a8683610a51565b610a9a610a9282610a73565b8484546109f5565b825550505050565b600090565b610aaf610aa2565b610aba818484610a7d565b505050565b5b81811015610ade57610ad3600082610aa7565b600181019050610ac0565b5050565b601f821115610b2357610af4816109c3565b610afd846109d8565b81016020851015610b0c578190505b610b20610b18856109d8565b830182610abf565b50505b505050565b600082821c905092915050565b6000610b4660001984600802610b28565b1980831691505092915050565b6000610b5f8383610b35565b9150826002028217905092915050565b610b78826105a0565b67ffffffffffffffff811115610b9157610b90610934565b5b610b9b8254610992565b610ba6828285610ae2565b600060209050601f831160018114610bd95760008415610bc7578287015190505b610bd18582610b53565b865550610c39565b601f198416610be7866109c3565b60005b82811015610c0f57848901518255600182019150602085019450602081019050610bea565b86831015610c2c5784890151610c28601f891682610b35565b8355505b6001600288020188555050505b505050505050565b7f506179206d6f7265207468616e203020657468657220706c6561736500000000600082015250565b6000610c77601c836105ab565b9150610c8282610c41565b602082019050919050565b60006020820190508181036000830152610ca681610c6a565b905091905056fea26469706673582212201dd39ea58e06be6ae202477d5f64732f651ac7c18c5edb8b19a02ca57e2b827664736f6c63430008110033",
  "linkReferences": {},
  "deployedLinkReferences": {}
}